{
  "contractName": "AaveDeBo",
  "abi": [
    {
      "inputs": [],
      "stateMutability": "nonpayable",
      "type": "constructor"
    },
    {
      "inputs": [
        {
          "internalType": "uint256",
          "name": "amountToBorrow",
          "type": "uint256"
        }
      ],
      "name": "depositETHAndBorrowDAI",
      "outputs": [],
      "stateMutability": "payable",
      "type": "function",
      "payable": true
    }
  ],
  "bytecode": "0x608060405273b53c1a33016b2dc2ff3653530bff1848a515c8c5600260006101000a81548173ffffffffffffffffffffffffffffffffffffffff021916908373ffffffffffffffffffffffffffffffffffffffff16021790555073cc9a0b7c43dc2a5f023bb9b738e45b0ef6b06e04600360006101000a81548173ffffffffffffffffffffffffffffffffffffffff021916908373ffffffffffffffffffffffffffffffffffffffff160217905550736b175474e89094c44da98b954eedeac495271d0f600460006101000a81548173ffffffffffffffffffffffffffffffffffffffff021916908373ffffffffffffffffffffffffffffffffffffffff16021790555034801561010f57600080fd5b50600260009054906101000a900473ffffffffffffffffffffffffffffffffffffffff16600660006101000a81548173ffffffffffffffffffffffffffffffffffffffff021916908373ffffffffffffffffffffffffffffffffffffffff160217905550600660009054906101000a900473ffffffffffffffffffffffffffffffffffffffff1673ffffffffffffffffffffffffffffffffffffffff16630261bf8b6040518163ffffffff1660e01b815260040160206040518083038186803b1580156101db57600080fd5b505afa1580156101ef573d6000803e3d6000fd5b505050506040513d602081101561020557600080fd5b81019080805190602001909291905050506000806101000a81548173ffffffffffffffffffffffffffffffffffffffff021916908373ffffffffffffffffffffffffffffffffffffffff16021790555060008054906101000a900473ffffffffffffffffffffffffffffffffffffffff16600560006101000a81548173ffffffffffffffffffffffffffffffffffffffff021916908373ffffffffffffffffffffffffffffffffffffffff160217905550600360009054906101000a900473ffffffffffffffffffffffffffffffffffffffff16600760006101000a81548173ffffffffffffffffffffffffffffffffffffffff021916908373ffffffffffffffffffffffffffffffffffffffff160217905550600760009054906101000a900473ffffffffffffffffffffffffffffffffffffffff1673ffffffffffffffffffffffffffffffffffffffff1663affa88176040518163ffffffff1660e01b815260040160206040518083038186803b15801561038157600080fd5b505afa158015610395573d6000803e3d6000fd5b505050506040513d60208110156103ab57600080fd5b8101908080519060200190929190505050600160006101000a81548173ffffffffffffffffffffffffffffffffffffffff021916908373ffffffffffffffffffffffffffffffffffffffff160217905550600460009054906101000a900473ffffffffffffffffffffffffffffffffffffffff16600860006101000a81548173ffffffffffffffffffffffffffffffffffffffff021916908373ffffffffffffffffffffffffffffffffffffffff1602179055506104118061046e6000396000f3fe60806040526004361061001e5760003560e01c8063d412c34714610023575b600080fd5b61004f6004803603602081101561003957600080fd5b8101908080359060200190929190505050610051565b005b600760009054906101000a900473ffffffffffffffffffffffffffffffffffffffff1673ffffffffffffffffffffffffffffffffffffffff1663474cf53d3460008054906101000a900473ffffffffffffffffffffffffffffffffffffffff163060006040518563ffffffff1660e01b8152600401808473ffffffffffffffffffffffffffffffffffffffff1681526020018373ffffffffffffffffffffffffffffffffffffffff16815260200182815260200193505050506000604051808303818588803b15801561012357600080fd5b505af1158015610137573d6000803e3d6000fd5b5050505050600560009054906101000a900473ffffffffffffffffffffffffffffffffffffffff1673ffffffffffffffffffffffffffffffffffffffff16635a3b74b9600160009054906101000a900473ffffffffffffffffffffffffffffffffffffffff1660016040518363ffffffff1660e01b8152600401808373ffffffffffffffffffffffffffffffffffffffff168152602001821515815260200192505050600060405180830381600087803b1580156101f457600080fd5b505af1158015610208573d6000803e3d6000fd5b50505050600560009054906101000a900473ffffffffffffffffffffffffffffffffffffffff1673ffffffffffffffffffffffffffffffffffffffff1663a415bcad600460009054906101000a900473ffffffffffffffffffffffffffffffffffffffff168360016000306040518663ffffffff1660e01b8152600401808673ffffffffffffffffffffffffffffffffffffffff1681526020018581526020018481526020018381526020018273ffffffffffffffffffffffffffffffffffffffff16815260200195505050505050600060405180830381600087803b1580156102f157600080fd5b505af1158015610305573d6000803e3d6000fd5b50505050600860009054906101000a900473ffffffffffffffffffffffffffffffffffffffff1673ffffffffffffffffffffffffffffffffffffffff1663a9059cbb33836040518363ffffffff1660e01b8152600401808373ffffffffffffffffffffffffffffffffffffffff16815260200182815260200192505050602060405180830381600087803b15801561039c57600080fd5b505af11580156103b0573d6000803e3d6000fd5b505050506040513d60208110156103c657600080fd5b8101908080519060200190929190505050505056fea2646970667358221220b1a40a770b94b04ecbd65a9a97ebf97e040cf03a4c85bb9827d3772b1af96e9c64736f6c63430007060033",
  "immutableReferences": {},
  "source": "// SPDX-License-Identifier: MIT\r\npragma solidity >=0.6.0 <0.8.0;\r\n\r\nimport \"./ILendingPool.sol\";\r\nimport \"./ILendingPoolAddressesProvider.sol\";\r\nimport \"./IWETHGateway.sol\";\r\nimport \"./IERC20.sol\";\r\n\r\ncontract AaveDeBo {\r\n\r\n    address private lendingPoolAddress;\r\n    address private wETHAddress;\r\n    //address private lpAddressProviderAddress = 0x24a42fD28C976A61Df5D00D0599C34c4f90748c8;  // this is the address for v1\r\n    address private lpAddressProviderAddress = 0xB53C1a33016B2DC2fF3653530bfF1848a515c8c5;    // this is the address for v2; use this one!!\r\n    address private WETHGatewayAddress = 0xcc9a0B7c43DC2a5F023Bb9b738E45B0Ef6B06E04;\r\n    address private daiAddress = 0x6B175474E89094C44Da98b954EedeAC495271d0F;\r\n\r\n    ILendingPool private lendingPool;\r\n    ILendingPoolAddressesProvider private provider;\r\n    IWETHGateway private wETHGateway;\r\n    IERC20 private dai;\r\n\r\n    constructor() public {\r\n        provider = ILendingPoolAddressesProvider(lpAddressProviderAddress);\r\n        lendingPoolAddress = provider.getLendingPool();\r\n        lendingPool = ILendingPool(lendingPoolAddress);\r\n        wETHGateway = IWETHGateway(WETHGatewayAddress);\r\n        wETHAddress = wETHGateway.getWETHAddress();\r\n        dai = IERC20(daiAddress);\r\n    }\r\n\r\n    function depositETHAndBorrowDAI(uint amountToBorrow) payable external {\r\n        wETHGateway.depositETH{value:msg.value}(lendingPoolAddress, address(this), 0);\r\n        lendingPool.setUserUseReserveAsCollateral(wETHAddress,true);\r\n        lendingPool.borrow(daiAddress, amountToBorrow, 1, 0, address(this));\r\n        dai.transfer(msg.sender, amountToBorrow);\r\n    }    \r\n}",
  "sourcePath": "C:/IE/projects/aavedebo/src/contracts/AaveDeBo.sol",
  "compiler": {
    "name": "solc",
    "version": "0.7.6+commit.7338295f.Emscripten.clang"
  },
  "schemaVersion": "3.3.4",
  "updatedAt": "2021-05-19T09:15:56.973Z",
  "networkType": "ethereum",
  "devdoc": {
    "kind": "dev",
    "methods": {},
    "version": 1
  },
  "userdoc": {
    "kind": "user",
    "methods": {},
    "version": 1
  }
}