{
  "contractName": "AaveDeBo",
  "abi": [
    {
      "inputs": [],
      "stateMutability": "nonpayable",
      "type": "constructor"
    },
    {
      "inputs": [
        {
          "internalType": "uint256",
          "name": "ammountToBorrow",
          "type": "uint256"
        }
      ],
      "name": "depositETHAndBorrowDAI",
      "outputs": [],
      "stateMutability": "payable",
      "type": "function",
      "payable": true
    }
  ],
  "bytecode": "0x60806040527324a42fd28c976a61df5d00d0599c34c4f90748c8600160006101000a81548173ffffffffffffffffffffffffffffffffffffffff021916908373ffffffffffffffffffffffffffffffffffffffff16021790555073cc9a0b7c43dc2a5f023bb9b738e45b0ef6b06e04600260006101000a81548173ffffffffffffffffffffffffffffffffffffffff021916908373ffffffffffffffffffffffffffffffffffffffff160217905550736b175474e89094c44da98b954eedeac495271d0f600360006101000a81548173ffffffffffffffffffffffffffffffffffffffff021916908373ffffffffffffffffffffffffffffffffffffffff16021790555034801561010f57600080fd5b50600160009054906101000a900473ffffffffffffffffffffffffffffffffffffffff16600560006101000a81548173ffffffffffffffffffffffffffffffffffffffff021916908373ffffffffffffffffffffffffffffffffffffffff160217905550600560009054906101000a900473ffffffffffffffffffffffffffffffffffffffff1673ffffffffffffffffffffffffffffffffffffffff16630261bf8b6040518163ffffffff1660e01b815260040160206040518083038186803b1580156101db57600080fd5b505afa1580156101ef573d6000803e3d6000fd5b505050506040513d602081101561020557600080fd5b81019080805190602001909291905050506000806101000a81548173ffffffffffffffffffffffffffffffffffffffff021916908373ffffffffffffffffffffffffffffffffffffffff16021790555060008054906101000a900473ffffffffffffffffffffffffffffffffffffffff16600460006101000a81548173ffffffffffffffffffffffffffffffffffffffff021916908373ffffffffffffffffffffffffffffffffffffffff160217905550600260009054906101000a900473ffffffffffffffffffffffffffffffffffffffff16600660006101000a81548173ffffffffffffffffffffffffffffffffffffffff021916908373ffffffffffffffffffffffffffffffffffffffff1602179055506085806103276000396000f3fe608060405260043610601c5760003560e01c8063d412c347146021575b600080fd5b604a60048036036020811015603557600080fd5b8101908080359060200190929190505050604c565b005b5056fea2646970667358221220a08a7ddddc3f47b0506c395bfec600ee576449c6cdb390f5f35655f85dd7c28c64736f6c63430007060033",
  "immutableReferences": {},
  "source": "// SPDX-License-Identifier: MIT\r\npragma solidity >=0.6.0 <0.8.0;\r\n\r\nimport \"./ILendingPool.sol\";\r\nimport \"./ILendingPoolAddressesProvider.sol\";\r\nimport \"./IWETHGateway.sol\";\r\n\r\ncontract AaveDeBo {\r\n\r\n    address private lendingPoolAddress;\r\n    address private lpAddressProviderAddress = 0x24a42fD28C976A61Df5D00D0599C34c4f90748c8;\r\n    address private WETHGatewayAddress = 0xcc9a0B7c43DC2a5F023Bb9b738E45B0Ef6B06E04;\r\n    address private daiAddress = 0x6B175474E89094C44Da98b954EedeAC495271d0F;\r\n\r\n    ILendingPool private lendingPool;\r\n    ILendingPoolAddressesProvider private provider;\r\n    IWETHGateway private wETHGateway;\r\n\r\n    constructor() public {\r\n        provider = ILendingPoolAddressesProvider(lpAddressProviderAddress);\r\n        lendingPoolAddress = provider.getLendingPool();\r\n        lendingPool = ILendingPool(lendingPoolAddress);\r\n        wETHGateway = IWETHGateway(WETHGatewayAddress);\r\n    }\r\n\r\n    function depositETHAndBorrowDAI(uint ammountToBorrow) payable external {\r\n        //wETHGateway.depositETH{value:msg.value}(lendingPoolAddress, msg.sender, 0);\r\n        //lendingPool.borrow(daiAddress, ammountToBorrow, 1, 0, msg.sender);\r\n    }    \r\n}",
  "sourcePath": "C:/ie/projects/aavedebo/src/contracts/AavedeBo.sol",
  "compiler": {
    "name": "solc",
    "version": "0.7.6+commit.7338295f.Emscripten.clang"
  },
  "schemaVersion": "3.3.4",
  "updatedAt": "2021-05-16T10:17:55.990Z",
  "networkType": "ethereum",
  "devdoc": {
    "kind": "dev",
    "methods": {},
    "version": 1
  },
  "userdoc": {
    "kind": "user",
    "methods": {},
    "version": 1
  }
}